{
  "contractName": "Airline",
  "abi": [
    {
      "inputs": [],
      "stateMutability": "nonpayable",
      "type": "constructor"
    },
    {
      "anonymous": false,
      "inputs": [
        {
          "indexed": true,
          "internalType": "address",
          "name": "customer",
          "type": "address"
        },
        {
          "indexed": false,
          "internalType": "uint256",
          "name": "price",
          "type": "uint256"
        },
        {
          "indexed": false,
          "internalType": "string",
          "name": "flight",
          "type": "string"
        }
      ],
      "name": "FlightPurchased",
      "type": "event"
    },
    {
      "inputs": [
        {
          "internalType": "address",
          "name": "",
          "type": "address"
        },
        {
          "internalType": "uint256",
          "name": "",
          "type": "uint256"
        }
      ],
      "name": "customerFlights",
      "outputs": [
        {
          "internalType": "string",
          "name": "name",
          "type": "string"
        },
        {
          "internalType": "uint256",
          "name": "price",
          "type": "uint256"
        }
      ],
      "stateMutability": "view",
      "type": "function",
      "constant": true
    },
    {
      "inputs": [
        {
          "internalType": "address",
          "name": "",
          "type": "address"
        }
      ],
      "name": "customerTotalFlights",
      "outputs": [
        {
          "internalType": "uint256",
          "name": "",
          "type": "uint256"
        }
      ],
      "stateMutability": "view",
      "type": "function",
      "constant": true
    },
    {
      "inputs": [
        {
          "internalType": "address",
          "name": "",
          "type": "address"
        }
      ],
      "name": "customers",
      "outputs": [
        {
          "internalType": "uint256",
          "name": "loyaltyPoints",
          "type": "uint256"
        },
        {
          "internalType": "uint256",
          "name": "totalFlights",
          "type": "uint256"
        }
      ],
      "stateMutability": "view",
      "type": "function",
      "constant": true
    },
    {
      "inputs": [
        {
          "internalType": "uint256",
          "name": "",
          "type": "uint256"
        }
      ],
      "name": "flights",
      "outputs": [
        {
          "internalType": "string",
          "name": "name",
          "type": "string"
        },
        {
          "internalType": "uint256",
          "name": "price",
          "type": "uint256"
        }
      ],
      "stateMutability": "view",
      "type": "function",
      "constant": true
    },
    {
      "inputs": [],
      "name": "owner",
      "outputs": [
        {
          "internalType": "address",
          "name": "",
          "type": "address"
        }
      ],
      "stateMutability": "view",
      "type": "function",
      "constant": true
    },
    {
      "inputs": [
        {
          "internalType": "uint256",
          "name": "flightIndex",
          "type": "uint256"
        }
      ],
      "name": "buyFlight",
      "outputs": [],
      "stateMutability": "payable",
      "type": "function",
      "payable": true
    },
    {
      "inputs": [],
      "name": "totalFlights",
      "outputs": [
        {
          "internalType": "uint256",
          "name": "",
          "type": "uint256"
        }
      ],
      "stateMutability": "view",
      "type": "function",
      "constant": true
    },
    {
      "inputs": [],
      "name": "redeemLoyaltyPoints",
      "outputs": [],
      "stateMutability": "nonpayable",
      "type": "function"
    },
    {
      "inputs": [],
      "name": "getRefundableEther",
      "outputs": [
        {
          "internalType": "uint256",
          "name": "",
          "type": "uint256"
        }
      ],
      "stateMutability": "view",
      "type": "function",
      "constant": true
    },
    {
      "inputs": [],
      "name": "getAirlineBalance",
      "outputs": [
        {
          "internalType": "uint256",
          "name": "",
          "type": "uint256"
        }
      ],
      "stateMutability": "view",
      "type": "function",
      "constant": true
    }
  ],
  "bytecode": "0x60806040526706f05b59d3b200006001553480156200001d57600080fd5b50336000806101000a81548173ffffffffffffffffffffffffffffffffffffffff021916908373ffffffffffffffffffffffffffffffffffffffff160217905550600260405180604001604052806040518060400160405280600581526020017f546f6b696f0000000000000000000000000000000000000000000000000000008152508152602001673782dace9d90000081525090806001815401808255809150506001900390600052602060002090600202016000909190919091506000820151816000019080519060200190620000f99291906200025c565b50602082015181600101555050600260405180604001604052806040518060400160405280600781526020017f4765726d616e79000000000000000000000000000000000000000000000000008152508152602001674563918244f4000081525090806001815401808255809150506001900390600052602060002090600202016000909190919091506000820151816000019080519060200190620001a19291906200025c565b50602082015181600101555050600260405180604001604052806040518060400160405280600681526020017f4d6164726964000000000000000000000000000000000000000000000000000081525081526020016729a2241af62c000081525090806001815401808255809150506001900390600052602060002090600202016000909190919091506000820151816000019080519060200190620002499291906200025c565b5060208201518160010155505062000371565b8280546200026a906200030c565b90600052602060002090601f0160209004810192826200028e5760008555620002da565b82601f10620002a957805160ff1916838001178555620002da565b82800160010185558215620002da579182015b82811115620002d9578251825591602001919060010190620002bc565b5b509050620002e99190620002ed565b5090565b5b8082111562000308576000816000905550600101620002ee565b5090565b600060028204905060018216806200032557607f821691505b602082108114156200033c576200033b62000342565b5b50919050565b7f4e487b7100000000000000000000000000000000000000000000000000000000600052602260045260246000fd5b610d5d80620003816000396000f3fe6080604052600436106100915760003560e01c80634bf02e7a116100595780634bf02e7a1461018457806381959427146101af5780638da5cb5b146101ed578063f269365a14610218578063f997114f1461025557610091565b80630ca97e481461009657806315ccf70f146100b25780632411ff73146100f057806329cd30b41461011b578063336989ae14610146575b600080fd5b6100b060048036038101906100ab919061095d565b61026c565b005b3480156100be57600080fd5b506100d960048036038101906100d4919061095d565b610508565b6040516100e79291906109fc565b60405180910390f35b3480156100fc57600080fd5b506101056105c4565b6040516101129190610a2c565b60405180910390f35b34801561012757600080fd5b5061013061061b565b60405161013d9190610a2c565b60405180910390f35b34801561015257600080fd5b5061016d600480360381019061016891906108f0565b61063f565b60405161017b929190610a77565b60405180910390f35b34801561019057600080fd5b50610199610663565b6040516101a69190610a2c565b60405180910390f35b3480156101bb57600080fd5b506101d660048036038101906101d1919061091d565b610670565b6040516101e49291906109fc565b60405180910390f35b3480156101f957600080fd5b50610202610739565b60405161020f91906109e1565b60405180910390f35b34801561022457600080fd5b5061023f600480360381019061023a91906108f0565b61075d565b60405161024c9190610a2c565b60405180910390f35b34801561026157600080fd5b5061026a610775565b005b60006002828154811061028257610281610cb4565b5b90600052602060002090600202016040518060400160405290816000820180546102ab90610bdb565b80601f01602080910402602001604051908101604052809291908181526020018280546102d790610bdb565b80156103245780601f106102f957610100808354040283529160200191610324565b820191906000526020600020905b81548152906001019060200180831161030757829003601f168201915b5050505050815260200160018201548152505090508060200151341461034957600080fd5b6000600360003373ffffffffffffffffffffffffffffffffffffffff1673ffffffffffffffffffffffffffffffffffffffff168152602001908152602001600020905060058160000160008282546103a19190610abc565b9250508190555060018160010160008282546103bd9190610abc565b92505081905550600460003373ffffffffffffffffffffffffffffffffffffffff1673ffffffffffffffffffffffffffffffffffffffff1681526020019081526020016000208290806001815401808255809150506001900390600052602060002090600202016000909190919091506000820151816000019080519060200190610449929190610823565b50602082015181600101555050600560003373ffffffffffffffffffffffffffffffffffffffff1673ffffffffffffffffffffffffffffffffffffffff16815260200190815260200160002060008154809291906104a690610c0d565b91905055503373ffffffffffffffffffffffffffffffffffffffff167f1a02c9b180301ecb4108648e8e1cd231f2857cc169519367000f7380f57566c4836020015184600001516040516104fb929190610a47565b60405180910390a2505050565b6002818154811061051857600080fd5b906000526020600020906002020160009150905080600001805461053b90610bdb565b80601f016020809104026020016040519081016040528092919081815260200182805461056790610bdb565b80156105b45780601f10610589576101008083540402835291602001916105b4565b820191906000526020600020905b81548152906001019060200180831161059757829003601f168201915b5050505050908060010154905082565b6000600360003373ffffffffffffffffffffffffffffffffffffffff1673ffffffffffffffffffffffffffffffffffffffff168152602001908152602001600020600001546001546106169190610b12565b905090565b6000803090508073ffffffffffffffffffffffffffffffffffffffff163191505090565b60036020528060005260406000206000915090508060000154908060010154905082565b6000600280549050905090565b6004602052816000526040600020818154811061068c57600080fd5b9060005260206000209060020201600091509150508060000180546106b090610bdb565b80601f01602080910402602001604051908101604052809291908181526020018280546106dc90610bdb565b80156107295780601f106106fe57610100808354040283529160200191610729565b820191906000526020600020905b81548152906001019060200180831161070c57829003601f168201915b5050505050908060010154905082565b60008054906101000a900473ffffffffffffffffffffffffffffffffffffffff1681565b60056020528060005260406000206000915090505481565b6000600360003373ffffffffffffffffffffffffffffffffffffffff1673ffffffffffffffffffffffffffffffffffffffff1681526020019081526020016000209050600081600001546001546107cc9190610b12565b90503373ffffffffffffffffffffffffffffffffffffffff166108fc829081150290604051600060405180830381858888f19350505050158015610814573d6000803e3d6000fd5b50600082600001819055505050565b82805461082f90610bdb565b90600052602060002090601f0160209004810192826108515760008555610898565b82601f1061086a57805160ff1916838001178555610898565b82800160010185558215610898579182015b8281111561089757825182559160200191906001019061087c565b5b5090506108a591906108a9565b5090565b5b808211156108c25760008160009055506001016108aa565b5090565b6000813590506108d581610cf9565b92915050565b6000813590506108ea81610d10565b92915050565b60006020828403121561090657610905610ce3565b5b6000610914848285016108c6565b91505092915050565b6000806040838503121561093457610933610ce3565b5b6000610942858286016108c6565b9250506020610953858286016108db565b9150509250929050565b60006020828403121561097357610972610ce3565b5b6000610981848285016108db565b91505092915050565b61099381610b6c565b82525050565b60006109a482610aa0565b6109ae8185610aab565b93506109be818560208601610ba8565b6109c781610ce8565b840191505092915050565b6109db81610b9e565b82525050565b60006020820190506109f6600083018461098a565b92915050565b60006040820190508181036000830152610a168185610999565b9050610a2560208301846109d2565b9392505050565b6000602082019050610a4160008301846109d2565b92915050565b6000604082019050610a5c60008301856109d2565b8181036020830152610a6e8184610999565b90509392505050565b6000604082019050610a8c60008301856109d2565b610a9960208301846109d2565b9392505050565b600081519050919050565b600082825260208201905092915050565b6000610ac782610b9e565b9150610ad283610b9e565b9250827fffffffffffffffffffffffffffffffffffffffffffffffffffffffffffffffff03821115610b0757610b06610c56565b5b828201905092915050565b6000610b1d82610b9e565b9150610b2883610b9e565b9250817fffffffffffffffffffffffffffffffffffffffffffffffffffffffffffffffff0483118215151615610b6157610b60610c56565b5b828202905092915050565b6000610b7782610b7e565b9050919050565b600073ffffffffffffffffffffffffffffffffffffffff82169050919050565b6000819050919050565b60005b83811015610bc6578082015181840152602081019050610bab565b83811115610bd5576000848401525b50505050565b60006002820490506001821680610bf357607f821691505b60208210811415610c0757610c06610c85565b5b50919050565b6000610c1882610b9e565b91507fffffffffffffffffffffffffffffffffffffffffffffffffffffffffffffffff821415610c4b57610c4a610c56565b5b600182019050919050565b7f4e487b7100000000000000000000000000000000000000000000000000000000600052601160045260246000fd5b7f4e487b7100000000000000000000000000000000000000000000000000000000600052602260045260246000fd5b7f4e487b7100000000000000000000000000000000000000000000000000000000600052603260045260246000fd5b600080fd5b6000601f19601f8301169050919050565b610d0281610b6c565b8114610d0d57600080fd5b50565b610d1981610b9e565b8114610d2457600080fd5b5056fea2646970667358221220e87cd4b4381296bb23761f4ea29b060694e474eeeff822502b7eb702e8c512b964736f6c63430008060033",
  "immutableReferences": {},
  "source": "//SPDX-License-Identifier: GPL-3.0\npragma solidity ^0.8.6;\n\ncontract Airline{\n\n    address public owner;\n\n    struct Customer{\n        uint loyaltyPoints;\n        uint totalFlights;\n    }\n\n    struct Flight{\n        string name;\n        uint price;\n    }\n\n    uint etherPerPoint = 0.5 ether;\n\n    Flight[] public flights;\n    mapping(address=>Customer) public customers;\n    mapping(address=>Flight[]) public customerFlights;\n    mapping(address=>uint) public customerTotalFlights;\n\n    event FlightPurchased(address indexed customer, uint price, string flight);\n\n    constructor(){\n        owner = msg.sender;\n        flights.push(Flight('Tokio', 4 ether));\n        flights.push(Flight('Germany', 5 ether));\n        flights.push(Flight('Madrid', 3 ether));\n    }\n\n    function buyFlight(uint flightIndex) public payable{\n        Flight memory flight = flights[flightIndex];\n        require(msg.value == flight.price);\n\n        Customer storage customer = customers[msg.sender];\n        customer.loyaltyPoints +=5;\n        customer.totalFlights+=1;\n        customerFlights[msg.sender].push(flight);\n        customerTotalFlights[msg.sender] ++;\n\n        emit FlightPurchased(msg.sender, flight.price, flight.name);\n    }\n\n    function totalFlights() public view returns (uint){\n        return flights.length;\n    }\n\n    function redeemLoyaltyPoints() public {\n        Customer storage customer = customers[msg.sender];\n        uint etherToRefund = etherPerPoint*customer.loyaltyPoints;\n        payable (msg.sender).transfer(etherToRefund);\n        customer.loyaltyPoints = 0;\n\n    }\n\n    function getRefundableEther() public view returns (uint){\n        return etherPerPoint * customers[msg.sender].loyaltyPoints;\n    }\n\n    function getAirlineBalance() public view returns(uint){\n        address airlineAddress = address(this);\n        return airlineAddress.balance;\n    }\n\n    modifier isOwner() {\n        require(msg.sender==owner);\n        _;\n    }\n}",
  "sourcePath": "/home/jose/Documentos/airline/contracts/Airline.sol",
  "compiler": {
    "name": "solc",
    "version": "0.8.6+commit.11564f7e.Emscripten.clang"
  },
  "schemaVersion": "3.4.4",
  "updatedAt": "2022-01-26T03:06:55.441Z",
  "networkType": "ethereum",
  "devdoc": {
    "kind": "dev",
    "methods": {},
    "version": 1
  },
  "userdoc": {
    "kind": "user",
    "methods": {},
    "version": 1
  }
}