{
  "contractName": "Airline",
  "abi": [
    {
      "inputs": [],
      "stateMutability": "nonpayable",
      "type": "constructor"
    },
    {
      "anonymous": false,
      "inputs": [
        {
          "indexed": true,
          "internalType": "address",
          "name": "customer",
          "type": "address"
        },
        {
          "indexed": false,
          "internalType": "uint256",
          "name": "price",
          "type": "uint256"
        }
      ],
      "name": "FlightPurchased",
      "type": "event"
    },
    {
      "inputs": [
        {
          "internalType": "address",
          "name": "",
          "type": "address"
        }
      ],
      "name": "customerTotalFlights",
      "outputs": [
        {
          "internalType": "uint256",
          "name": "",
          "type": "uint256"
        }
      ],
      "stateMutability": "view",
      "type": "function",
      "constant": true
    },
    {
      "inputs": [
        {
          "internalType": "address",
          "name": "",
          "type": "address"
        }
      ],
      "name": "customers",
      "outputs": [
        {
          "internalType": "uint256",
          "name": "loyaltyPoints",
          "type": "uint256"
        },
        {
          "internalType": "uint256",
          "name": "totalFlights",
          "type": "uint256"
        }
      ],
      "stateMutability": "view",
      "type": "function",
      "constant": true
    },
    {
      "inputs": [
        {
          "internalType": "address",
          "name": "",
          "type": "address"
        },
        {
          "internalType": "uint256",
          "name": "",
          "type": "uint256"
        }
      ],
      "name": "customersFlights",
      "outputs": [
        {
          "internalType": "string",
          "name": "name",
          "type": "string"
        },
        {
          "internalType": "uint256",
          "name": "price",
          "type": "uint256"
        }
      ],
      "stateMutability": "view",
      "type": "function",
      "constant": true
    },
    {
      "inputs": [
        {
          "internalType": "uint256",
          "name": "",
          "type": "uint256"
        }
      ],
      "name": "flights",
      "outputs": [
        {
          "internalType": "string",
          "name": "name",
          "type": "string"
        },
        {
          "internalType": "uint256",
          "name": "price",
          "type": "uint256"
        }
      ],
      "stateMutability": "view",
      "type": "function",
      "constant": true
    },
    {
      "inputs": [],
      "name": "owner",
      "outputs": [
        {
          "internalType": "address",
          "name": "",
          "type": "address"
        }
      ],
      "stateMutability": "view",
      "type": "function",
      "constant": true
    },
    {
      "inputs": [
        {
          "internalType": "uint256",
          "name": "flightIndex",
          "type": "uint256"
        }
      ],
      "name": "buyFlight",
      "outputs": [],
      "stateMutability": "payable",
      "type": "function",
      "payable": true
    },
    {
      "inputs": [],
      "name": "totalFlights",
      "outputs": [
        {
          "internalType": "uint256",
          "name": "",
          "type": "uint256"
        }
      ],
      "stateMutability": "view",
      "type": "function",
      "constant": true
    },
    {
      "inputs": [],
      "name": "redeemLoyaltyPoints",
      "outputs": [],
      "stateMutability": "nonpayable",
      "type": "function"
    },
    {
      "inputs": [],
      "name": "getRefundableEther",
      "outputs": [
        {
          "internalType": "uint256",
          "name": "",
          "type": "uint256"
        }
      ],
      "stateMutability": "view",
      "type": "function",
      "constant": true
    },
    {
      "inputs": [],
      "name": "getAirlineBalance",
      "outputs": [
        {
          "internalType": "uint256",
          "name": "",
          "type": "uint256"
        }
      ],
      "stateMutability": "view",
      "type": "function",
      "constant": true
    }
  ],
  "bytecode": "0x60806040526706f05b59d3b200006001553480156200001d57600080fd5b50336000806101000a81548173ffffffffffffffffffffffffffffffffffffffff021916908373ffffffffffffffffffffffffffffffffffffffff160217905550600260405180604001604052806040518060400160405280600581526020017f546f6b696f0000000000000000000000000000000000000000000000000000008152508152602001673782dace9d90000081525090806001815401808255809150506001900390600052602060002090600202016000909190919091506000820151816000019080519060200190620000f99291906200025c565b50602082015181600101555050600260405180604001604052806040518060400160405280600781526020017f4765726d616e79000000000000000000000000000000000000000000000000008152508152602001674563918244f4000081525090806001815401808255809150506001900390600052602060002090600202016000909190919091506000820151816000019080519060200190620001a19291906200025c565b50602082015181600101555050600260405180604001604052806040518060400160405280600681526020017f4d6164726964000000000000000000000000000000000000000000000000000081525081526020016729a2241af62c000081525090806001815401808255809150506001900390600052602060002090600202016000909190919091506000820151816000019080519060200190620002499291906200025c565b5060208201518160010155505062000371565b8280546200026a906200030c565b90600052602060002090601f0160209004810192826200028e5760008555620002da565b82601f10620002a957805160ff1916838001178555620002da565b82800160010185558215620002da579182015b82811115620002d9578251825591602001919060010190620002bc565b5b509050620002e99190620002ed565b5090565b5b8082111562000308576000816000905550600101620002ee565b5090565b600060028204905060018216806200032557607f821691505b602082108114156200033c576200033b62000342565b5b50919050565b7f4e487b7100000000000000000000000000000000000000000000000000000000600052602260045260246000fd5b610d2780620003816000396000f3fe6080604052600436106100915760003560e01c80633a34becd116100595780633a34becd146101845780634bf02e7a146101c25780638da5cb5b146101ed578063f269365a14610218578063f997114f1461025557610091565b80630ca97e481461009657806315ccf70f146100b25780632411ff73146100f057806329cd30b41461011b578063336989ae14610146575b600080fd5b6100b060048036038101906100ab9190610957565b61026c565b005b3480156100be57600080fd5b506100d960048036038101906100d49190610957565b610502565b6040516100e79291906109f6565b60405180910390f35b3480156100fc57600080fd5b506101056105be565b6040516101129190610a26565b60405180910390f35b34801561012757600080fd5b50610130610615565b60405161013d9190610a26565b60405180910390f35b34801561015257600080fd5b5061016d600480360381019061016891906108ea565b610639565b60405161017b929190610a41565b60405180910390f35b34801561019057600080fd5b506101ab60048036038101906101a69190610917565b61065d565b6040516101b99291906109f6565b60405180910390f35b3480156101ce57600080fd5b506101d7610726565b6040516101e49190610a26565b60405180910390f35b3480156101f957600080fd5b50610202610733565b60405161020f91906109db565b60405180910390f35b34801561022457600080fd5b5061023f600480360381019061023a91906108ea565b610757565b60405161024c9190610a26565b60405180910390f35b34801561026157600080fd5b5061026a61076f565b005b60006002828154811061028257610281610c7e565b5b90600052602060002090600202016040518060400160405290816000820180546102ab90610ba5565b80601f01602080910402602001604051908101604052809291908181526020018280546102d790610ba5565b80156103245780601f106102f957610100808354040283529160200191610324565b820191906000526020600020905b81548152906001019060200180831161030757829003601f168201915b5050505050815260200160018201548152505090508060200151341461034957600080fd5b6000600360003373ffffffffffffffffffffffffffffffffffffffff1673ffffffffffffffffffffffffffffffffffffffff168152602001908152602001600020905060058160000160008282546103a19190610a86565b9250508190555060018160010160008282546103bd9190610a86565b92505081905550600460003373ffffffffffffffffffffffffffffffffffffffff1673ffffffffffffffffffffffffffffffffffffffff168152602001908152602001600020829080600181540180825580915050600190039060005260206000209060020201600090919091909150600082015181600001908051906020019061044992919061081d565b50602082015181600101555050600560003373ffffffffffffffffffffffffffffffffffffffff1673ffffffffffffffffffffffffffffffffffffffff16815260200190815260200160002060008154809291906104a690610bd7565b91905055503373ffffffffffffffffffffffffffffffffffffffff167f8644b0eb56c7a568d35c9f35feeacfcdb42c3cfe3deb99e35d6ac27df853a08c83602001516040516104f59190610a26565b60405180910390a2505050565b6002818154811061051257600080fd5b906000526020600020906002020160009150905080600001805461053590610ba5565b80601f016020809104026020016040519081016040528092919081815260200182805461056190610ba5565b80156105ae5780601f10610583576101008083540402835291602001916105ae565b820191906000526020600020905b81548152906001019060200180831161059157829003601f168201915b5050505050908060010154905082565b6000600360003373ffffffffffffffffffffffffffffffffffffffff1673ffffffffffffffffffffffffffffffffffffffff168152602001908152602001600020600001546001546106109190610adc565b905090565b6000803090508073ffffffffffffffffffffffffffffffffffffffff163191505090565b60036020528060005260406000206000915090508060000154908060010154905082565b6004602052816000526040600020818154811061067957600080fd5b90600052602060002090600202016000915091505080600001805461069d90610ba5565b80601f01602080910402602001604051908101604052809291908181526020018280546106c990610ba5565b80156107165780601f106106eb57610100808354040283529160200191610716565b820191906000526020600020905b8154815290600101906020018083116106f957829003601f168201915b5050505050908060010154905082565b6000600280549050905090565b60008054906101000a900473ffffffffffffffffffffffffffffffffffffffff1681565b60056020528060005260406000206000915090505481565b6000600360003373ffffffffffffffffffffffffffffffffffffffff1673ffffffffffffffffffffffffffffffffffffffff1681526020019081526020016000209050600081600001546001546107c69190610adc565b90503373ffffffffffffffffffffffffffffffffffffffff166108fc829081150290604051600060405180830381858888f1935050505015801561080e573d6000803e3d6000fd5b50600082600001819055505050565b82805461082990610ba5565b90600052602060002090601f01602090048101928261084b5760008555610892565b82601f1061086457805160ff1916838001178555610892565b82800160010185558215610892579182015b82811115610891578251825591602001919060010190610876565b5b50905061089f91906108a3565b5090565b5b808211156108bc5760008160009055506001016108a4565b5090565b6000813590506108cf81610cc3565b92915050565b6000813590506108e481610cda565b92915050565b600060208284031215610900576108ff610cad565b5b600061090e848285016108c0565b91505092915050565b6000806040838503121561092e5761092d610cad565b5b600061093c858286016108c0565b925050602061094d858286016108d5565b9150509250929050565b60006020828403121561096d5761096c610cad565b5b600061097b848285016108d5565b91505092915050565b61098d81610b36565b82525050565b600061099e82610a6a565b6109a88185610a75565b93506109b8818560208601610b72565b6109c181610cb2565b840191505092915050565b6109d581610b68565b82525050565b60006020820190506109f06000830184610984565b92915050565b60006040820190508181036000830152610a108185610993565b9050610a1f60208301846109cc565b9392505050565b6000602082019050610a3b60008301846109cc565b92915050565b6000604082019050610a5660008301856109cc565b610a6360208301846109cc565b9392505050565b600081519050919050565b600082825260208201905092915050565b6000610a9182610b68565b9150610a9c83610b68565b9250827fffffffffffffffffffffffffffffffffffffffffffffffffffffffffffffffff03821115610ad157610ad0610c20565b5b828201905092915050565b6000610ae782610b68565b9150610af283610b68565b9250817fffffffffffffffffffffffffffffffffffffffffffffffffffffffffffffffff0483118215151615610b2b57610b2a610c20565b5b828202905092915050565b6000610b4182610b48565b9050919050565b600073ffffffffffffffffffffffffffffffffffffffff82169050919050565b6000819050919050565b60005b83811015610b90578082015181840152602081019050610b75565b83811115610b9f576000848401525b50505050565b60006002820490506001821680610bbd57607f821691505b60208210811415610bd157610bd0610c4f565b5b50919050565b6000610be282610b68565b91507fffffffffffffffffffffffffffffffffffffffffffffffffffffffffffffffff821415610c1557610c14610c20565b5b600182019050919050565b7f4e487b7100000000000000000000000000000000000000000000000000000000600052601160045260246000fd5b7f4e487b7100000000000000000000000000000000000000000000000000000000600052602260045260246000fd5b7f4e487b7100000000000000000000000000000000000000000000000000000000600052603260045260246000fd5b600080fd5b6000601f19601f8301169050919050565b610ccc81610b36565b8114610cd757600080fd5b50565b610ce381610b68565b8114610cee57600080fd5b5056fea26469706673582212200324dd92add5631103e088b05c12c731c8cb537f867044b77d467f4f10ae70d364736f6c63430008060033",
  "immutableReferences": {},
  "source": "//SPDX-License-Identifier: GPL-3.0\npragma solidity ^0.8.6;\n\ncontract Airline{\n\n    address public owner;\n\n    struct Customer{\n        uint loyaltyPoints;\n        uint totalFlights;\n    }\n\n    struct Flight{\n        string name;\n        uint price;\n    }\n\n    uint etherPerPoint = 0.5 ether;\n\n    Flight[] public flights;\n    mapping(address=>Customer) public customers;\n    mapping(address=>Flight[]) public customersFlights;\n    mapping(address=>uint) public customerTotalFlights;\n\n    event FlightPurchased(address indexed customer, uint price);\n\n    constructor(){\n        owner = msg.sender;\n        flights.push(Flight('Tokio', 4 ether));\n        flights.push(Flight('Germany', 5 ether));\n        flights.push(Flight('Madrid', 3 ether));\n    }\n\n    function buyFlight(uint flightIndex) public payable{\n        Flight memory flight = flights[flightIndex];\n        require(msg.value == flight.price);\n\n        Customer storage customer = customers[msg.sender];\n        customer.loyaltyPoints +=5;\n        customer.totalFlights+=1;\n        customersFlights[msg.sender].push(flight);\n        customerTotalFlights[msg.sender] ++;\n\n        emit FlightPurchased(msg.sender, flight.price);\n    }\n\n    function totalFlights() public view returns (uint){\n        return flights.length;\n    }\n\n    function redeemLoyaltyPoints() public {\n        Customer storage customer = customers[msg.sender];\n        uint etherToRefund = etherPerPoint*customer.loyaltyPoints;\n        payable (msg.sender).transfer(etherToRefund);\n        customer.loyaltyPoints = 0;\n\n    }\n\n    function getRefundableEther() public view returns (uint){\n        return etherPerPoint * customers[msg.sender].loyaltyPoints;\n    }\n\n    function getAirlineBalance() public view returns(uint){\n        address airlineAddress = address(this);\n        return airlineAddress.balance;\n    }\n\n    modifier isOwner() {\n        require(msg.sender==owner);\n        _;\n    }\n}",
  "sourcePath": "/home/jose/Documentos/airline/contracts/Airline.sol",
  "compiler": {
    "name": "solc",
    "version": "0.8.6+commit.11564f7e.Emscripten.clang"
  },
  "schemaVersion": "3.4.4",
  "updatedAt": "2022-01-23T08:18:39.630Z",
  "networkType": "ethereum",
  "devdoc": {
    "kind": "dev",
    "methods": {},
    "version": 1
  },
  "userdoc": {
    "kind": "user",
    "methods": {},
    "version": 1
  }
}